{
  "contractName": "BuildingFactory",
  "abi": [
    {
      "constant": true,
      "inputs": [
        {
          "name": "",
          "type": "address"
        }
      ],
      "name": "inBuilding",
      "outputs": [
        {
          "name": "",
          "type": "address"
        }
      ],
      "payable": false,
      "stateMutability": "view",
      "type": "function"
    },
    {
      "constant": true,
      "inputs": [],
      "name": "didfactory",
      "outputs": [
        {
          "name": "",
          "type": "address"
        }
      ],
      "payable": false,
      "stateMutability": "view",
      "type": "function"
    },
    {
      "constant": true,
      "inputs": [
        {
          "name": "",
          "type": "uint256"
        }
      ],
      "name": "array_building",
      "outputs": [
        {
          "name": "",
          "type": "string"
        }
      ],
      "payable": false,
      "stateMutability": "view",
      "type": "function"
    },
    {
      "anonymous": false,
      "inputs": [
        {
          "indexed": true,
          "name": "workerAddress",
          "type": "address"
        },
        {
          "indexed": true,
          "name": "buildingAddress",
          "type": "address"
        },
        {
          "indexed": false,
          "name": "longitude",
          "type": "string"
        },
        {
          "indexed": false,
          "name": "latitude",
          "type": "string"
        }
      ],
      "name": "enter",
      "type": "event"
    },
    {
      "anonymous": false,
      "inputs": [
        {
          "indexed": true,
          "name": "workerAddress",
          "type": "address"
        },
        {
          "indexed": true,
          "name": "buildingAddress",
          "type": "address"
        },
        {
          "indexed": false,
          "name": "longitude",
          "type": "string"
        },
        {
          "indexed": false,
          "name": "lattitude",
          "type": "string"
        }
      ],
      "name": "leave",
      "type": "event"
    },
    {
      "constant": false,
      "inputs": [
        {
          "name": "newName",
          "type": "string"
        },
        {
          "name": "newLatitude",
          "type": "string"
        },
        {
          "name": "newLongitude",
          "type": "string"
        }
      ],
      "name": "createBuilding",
      "outputs": [
        {
          "name": "",
          "type": "string"
        }
      ],
      "payable": false,
      "stateMutability": "nonpayable",
      "type": "function"
    },
    {
      "constant": false,
      "inputs": [
        {
          "name": "x",
          "type": "address"
        }
      ],
      "name": "set_didfactory",
      "outputs": [],
      "payable": false,
      "stateMutability": "nonpayable",
      "type": "function"
    },
    {
      "constant": false,
      "inputs": [
        {
          "name": "workerAddress",
          "type": "address"
        },
        {
          "name": "buildingAddress",
          "type": "address"
        }
      ],
      "name": "_enter",
      "outputs": [],
      "payable": false,
      "stateMutability": "nonpayable",
      "type": "function"
    },
    {
      "constant": false,
      "inputs": [
        {
          "name": "workerAddress",
          "type": "address"
        },
        {
          "name": "buildingAddress",
          "type": "address"
        }
      ],
      "name": "_leave",
      "outputs": [],
      "payable": false,
      "stateMutability": "nonpayable",
      "type": "function"
    },
    {
      "constant": true,
      "inputs": [
        {
          "name": "x",
          "type": "uint256"
        }
      ],
      "name": "getBuildingAt",
      "outputs": [
        {
          "name": "",
          "type": "string"
        }
      ],
      "payable": false,
      "stateMutability": "view",
      "type": "function"
    }
  ],
  "bytecode": "0x608060405234801561001057600080fd5b5061241c806100206000396000f3fe60806040523480156200001157600080fd5b5060043610620000945760003560e01c80633eaae6a311620000635780633eaae6a31462000280578063414c7f4114620004f1578063aa5bd9221462000538578063c101e56b14620005e55762000094565b8063031315f914620000995780630535de52146200014657806310e2f55a14620001cd5780631b97a8a81462000234575b600080fd5b620000c860048036036020811015620000b157600080fd5b81019080803590602001909291905050506200064c565b6040518080602001828103825283818151815260200191508051906020019080838360005b838110156200010a578082015181840152602081019050620000ed565b50505050905090810190601f168015620001385780820380516001836020036101000a031916815260200191505b509250505060405180910390f35b6200018b600480360360208110156200015e57600080fd5b81019080803573ffffffffffffffffffffffffffffffffffffffff1690602001909291905050506200070a565b604051808273ffffffffffffffffffffffffffffffffffffffff1673ffffffffffffffffffffffffffffffffffffffff16815260200191505060405180910390f35b6200023260048036036040811015620001e557600080fd5b81019080803573ffffffffffffffffffffffffffffffffffffffff169060200190929190803573ffffffffffffffffffffffffffffffffffffffff1690602001909291905050506200073d565b005b6200023e62000ba0565b604051808273ffffffffffffffffffffffffffffffffffffffff1673ffffffffffffffffffffffffffffffffffffffff16815260200191505060405180910390f35b62000473600480360360608110156200029857600080fd5b8101908080359060200190640100000000811115620002b657600080fd5b820183602082011115620002c957600080fd5b80359060200191846001830284011164010000000083111715620002ec57600080fd5b91908080601f016020809104026020016040519081016040528093929190818152602001838380828437600081840152601f19601f820116905080830192505050505050509192919290803590602001906401000000008111156200035057600080fd5b8201836020820111156200036357600080fd5b803590602001918460018302840111640100000000831117156200038657600080fd5b91908080601f016020809104026020016040519081016040528093929190818152602001838380828437600081840152601f19601f82011690508083019250505050505050919291929080359060200190640100000000811115620003ea57600080fd5b820183602082011115620003fd57600080fd5b803590602001918460018302840111640100000000831117156200042057600080fd5b91908080601f016020809104026020016040519081016040528093929190818152602001838380828437600081840152601f19601f82011690508083019250505050505050919291929050505062000bc6565b6040518080602001828103825283818151815260200191508051906020019080838360005b83811015620004b557808201518184015260208101905062000498565b50505050905090810190601f168015620004e35780820380516001836020036101000a031916815260200191505b509250505060405180910390f35b62000536600480360360208110156200050957600080fd5b81019080803573ffffffffffffffffffffffffffffffffffffffff16906020019092919050505062000fa9565b005b62000567600480360360208110156200055057600080fd5b810190808035906020019092919050505062000fed565b6040518080602001828103825283818151815260200191508051906020019080838360005b83811015620005a95780820151818401526020810190506200058c565b50505050905090810190601f168015620005d75780820380516001836020036101000a031916815260200191505b509250505060405180910390f35b6200064a60048036036040811015620005fd57600080fd5b81019080803573ffffffffffffffffffffffffffffffffffffffff169060200190929190803573ffffffffffffffffffffffffffffffffffffffff169060200190929190505050620010ab565b005b6060600082815481106200065c57fe5b906000526020600020018054600181600116156101000203166002900480601f016020809104026020016040519081016040528092919081815260200182805460018160011615610100020316600290048015620006fe5780601f10620006d257610100808354040283529160200191620006fe565b820191906000526020600020905b815481529060010190602001808311620006e057829003601f168201915b50505050509050919050565b60026020528060005260406000206000915054906101000a900473ffffffffffffffffffffffffffffffffffffffff1681565b8073ffffffffffffffffffffffffffffffffffffffff16600260008473ffffffffffffffffffffffffffffffffffffffff1673ffffffffffffffffffffffffffffffffffffffff16815260200190815260200160002060009054906101000a900473ffffffffffffffffffffffffffffffffffffffff1673ffffffffffffffffffffffffffffffffffffffff161462000822576040517f08c379a0000000000000000000000000000000000000000000000000000000008152600401808060200182810382526022815260200180620023ae6022913960400191505060405180910390fd5b60008190508173ffffffffffffffffffffffffffffffffffffffff168373ffffffffffffffffffffffffffffffffffffffff167fce688f8060b26eb95276d14fcd015ad730a822e6ad4bb5534ad77f42a2546d878373ffffffffffffffffffffffffffffffffffffffff1663589af69c6040518163ffffffff1660e01b815260040160006040518083038186803b158015620008bd57600080fd5b505afa158015620008d2573d6000803e3d6000fd5b505050506040513d6000823e3d601f19601f820116820180604052506020811015620008fd57600080fd5b8101908080516401000000008111156200091657600080fd5b828101905060208101848111156200092d57600080fd5b81518560018202830111640100000000821117156200094b57600080fd5b50509291905050508473ffffffffffffffffffffffffffffffffffffffff16634fd7d76a6040518163ffffffff1660e01b815260040160006040518083038186803b1580156200099a57600080fd5b505afa158015620009af573d6000803e3d6000fd5b505050506040513d6000823e3d601f19601f820116820180604052506020811015620009da57600080fd5b810190808051640100000000811115620009f357600080fd5b8281019050602081018481111562000a0a57600080fd5b815185600182028301116401000000008211171562000a2857600080fd5b5050929190505050604051808060200180602001838103835285818151815260200191508051906020019080838360005b8381101562000a7657808201518184015260208101905062000a59565b50505050905090810190601f16801562000aa45780820380516001836020036101000a031916815260200191505b50838103825284818151815260200191508051906020019080838360005b8381101562000adf57808201518184015260208101905062000ac2565b50505050905090810190601f16801562000b0d5780820380516001836020036101000a031916815260200191505b5094505050505060405180910390a36000600260008573ffffffffffffffffffffffffffffffffffffffff1673ffffffffffffffffffffffffffffffffffffffff16815260200190815260200160002060006101000a81548173ffffffffffffffffffffffffffffffffffffffff021916908373ffffffffffffffffffffffffffffffffffffffff160217905550505050565b600160009054906101000a900473ffffffffffffffffffffffffffffffffffffffff1681565b6060600084848460405162000bdb906200150e565b80806020018060200180602001848103845287818151815260200191508051906020019080838360005b8381101562000c2257808201518184015260208101905062000c05565b50505050905090810190601f16801562000c505780820380516001836020036101000a031916815260200191505b50848103835286818151815260200191508051906020019080838360005b8381101562000c8b57808201518184015260208101905062000c6e565b50505050905090810190601f16801562000cb95780820380516001836020036101000a031916815260200191505b50848103825285818151815260200191508051906020019080838360005b8381101562000cf457808201518184015260208101905062000cd7565b50505050905090810190601f16801562000d225780820380516001836020036101000a031916815260200191505b509650505050505050604051809103906000f08015801562000d48573d6000803e3d6000fd5b5090506060600160009054906101000a900473ffffffffffffffffffffffffffffffffffffffff1673ffffffffffffffffffffffffffffffffffffffff1663705a5662836040518263ffffffff1660e01b8152600401808273ffffffffffffffffffffffffffffffffffffffff1673ffffffffffffffffffffffffffffffffffffffff168152602001915050600060405180830381600087803b15801562000def57600080fd5b505af115801562000e04573d6000803e3d6000fd5b505050506040513d6000823e3d601f19601f82011682018060405250602081101562000e2f57600080fd5b81019080805164010000000081111562000e4857600080fd5b8281019050602081018481111562000e5f57600080fd5b815185600182028301116401000000008211171562000e7d57600080fd5b505092919050505090508173ffffffffffffffffffffffffffffffffffffffff16630e6ba60a826040518263ffffffff1660e01b81526004018080602001828103825283818151815260200191508051906020019080838360005b8381101562000ef557808201518184015260208101905062000ed8565b50505050905090810190601f16801562000f235780820380516001836020036101000a031916815260200191505b5092505050600060405180830381600087803b15801562000f4357600080fd5b505af115801562000f58573d6000803e3d6000fd5b50505050600081908060018154018082558091505090600182039060005260206000200160009091929091909150908051906020019062000f9b9291906200151c565b505080925050509392505050565b80600160006101000a81548173ffffffffffffffffffffffffffffffffffffffff021916908373ffffffffffffffffffffffffffffffffffffffff16021790555050565b6000818154811062000ffb57fe5b906000526020600020016000915090508054600181600116156101000203166002900480601f016020809104026020016040519081016040528092919081815260200182805460018160011615610100020316600290048015620010a35780601f106200107757610100808354040283529160200191620010a3565b820191906000526020600020905b8154815290600101906020018083116200108557829003601f168201915b505050505081565b600073ffffffffffffffffffffffffffffffffffffffff16600260008473ffffffffffffffffffffffffffffffffffffffff1673ffffffffffffffffffffffffffffffffffffffff16815260200190815260200160002060009054906101000a900473ffffffffffffffffffffffffffffffffffffffff1673ffffffffffffffffffffffffffffffffffffffff161462001191576040517f08c379a0000000000000000000000000000000000000000000000000000000008152600401808060200182810382526021815260200180620023d06021913960400191505060405180910390fd5b60008190508173ffffffffffffffffffffffffffffffffffffffff168373ffffffffffffffffffffffffffffffffffffffff167f062266e2435f42847d94eb01b99e84717f84f705aa96af84dbaa040f186727828373ffffffffffffffffffffffffffffffffffffffff1663589af69c6040518163ffffffff1660e01b815260040160006040518083038186803b1580156200122c57600080fd5b505afa15801562001241573d6000803e3d6000fd5b505050506040513d6000823e3d601f19601f8201168201806040525060208110156200126c57600080fd5b8101908080516401000000008111156200128557600080fd5b828101905060208101848111156200129c57600080fd5b8151856001820283011164010000000082111715620012ba57600080fd5b50509291905050508473ffffffffffffffffffffffffffffffffffffffff16634fd7d76a6040518163ffffffff1660e01b815260040160006040518083038186803b1580156200130957600080fd5b505afa1580156200131e573d6000803e3d6000fd5b505050506040513d6000823e3d601f19601f8201168201806040525060208110156200134957600080fd5b8101908080516401000000008111156200136257600080fd5b828101905060208101848111156200137957600080fd5b81518560018202830111640100000000821117156200139757600080fd5b5050929190505050604051808060200180602001838103835285818151815260200191508051906020019080838360005b83811015620013e5578082015181840152602081019050620013c8565b50505050905090810190601f168015620014135780820380516001836020036101000a031916815260200191505b50838103825284818151815260200191508051906020019080838360005b838110156200144e57808201518184015260208101905062001431565b50505050905090810190601f1680156200147c5780820380516001836020036101000a031916815260200191505b5094505050505060405180910390a381600260008573ffffffffffffffffffffffffffffffffffffffff1673ffffffffffffffffffffffffffffffffffffffff16815260200190815260200160002060006101000a81548173ffffffffffffffffffffffffffffffffffffffff021916908373ffffffffffffffffffffffffffffffffffffffff160217905550505050565b610de280620015cc83390190565b828054600181600116156101000203166002900490600052602060002090601f016020900481019282601f106200155f57805160ff191683800117855562001590565b8280016001018555821562001590579182015b828111156200158f57825182559160200191906001019062001572565b5b5090506200159f9190620015a3565b5090565b620015c891905b80821115620015c4576000816000905550600101620015aa565b5090565b9056fe60806040523480156200001157600080fd5b5060405162000de238038062000de2833981018060405260608110156200003757600080fd5b8101908080516401000000008111156200005057600080fd5b828101905060208101848111156200006757600080fd5b81518560018202830111640100000000821117156200008557600080fd5b50509291906020018051640100000000811115620000a257600080fd5b82810190506020810184811115620000b957600080fd5b8151856001820283011164010000000082111715620000d757600080fd5b50509291906020018051640100000000811115620000f457600080fd5b828101905060208101848111156200010b57600080fd5b81518560018202830111640100000000821117156200012957600080fd5b505092919050505082600190805190602001906200014992919062000185565b5081600290805190602001906200016292919062000185565b5080600390805190602001906200017b92919062000185565b5050505062000234565b828054600181600116156101000203166002900490600052602060002090601f016020900481019282601f10620001c857805160ff1916838001178555620001f9565b82800160010185558215620001f9579182015b82811115620001f8578251825591602001919060010190620001db565b5b5090506200020891906200020c565b5090565b6200023191905b808211156200022d57600081600090555060010162000213565b5090565b90565b610b9e80620002446000396000f3fe608060405234801561001057600080fd5b50600436106100935760003560e01c806348dca9c01161006657806348dca9c0146103645780634fd7d76a1461041f578063589af69c146104a25780636227455414610525578063a6e9f03e146105a857610093565b806306fdde03146100985780630e6ba60a1461011b5780631c76cd35146101d65780634556ff4a146102a9575b600080fd5b6100a061067b565b6040518080602001828103825283818151815260200191508051906020019080838360005b838110156100e05780820151818401526020810190506100c5565b50505050905090810190601f16801561010d5780820380516001836020036101000a031916815260200191505b509250505060405180910390f35b6101d46004803603602081101561013157600080fd5b810190808035906020019064010000000081111561014e57600080fd5b82018360208201111561016057600080fd5b8035906020019184600183028401116401000000008311171561018257600080fd5b91908080601f016020809104026020016040519081016040528093929190818152602001838380828437600081840152601f19601f820116905080830192505050505050509192919290505050610719565b005b61028f600480360360208110156101ec57600080fd5b810190808035906020019064010000000081111561020957600080fd5b82018360208201111561021b57600080fd5b8035906020019184600183028401116401000000008311171561023d57600080fd5b91908080601f016020809104026020016040519081016040528093929190818152602001838380828437600081840152601f19601f820116905080830192505050505050509192919290505050610733565b604051808215151515815260200191505060405180910390f35b610362600480360360208110156102bf57600080fd5b81019080803590602001906401000000008111156102dc57600080fd5b8201836020820111156102ee57600080fd5b8035906020019184600183028401116401000000008311171561031057600080fd5b91908080601f016020809104026020016040519081016040528093929190818152602001838380828437600081840152601f19601f820116905080830192505050505050509192919290505050610769565b005b61041d6004803603602081101561037a57600080fd5b810190808035906020019064010000000081111561039757600080fd5b8201836020820111156103a957600080fd5b803590602001918460018302840111640100000000831117156103cb57600080fd5b91908080601f016020809104026020016040519081016040528093929190818152602001838380828437600081840152601f19601f8201169050808301925050505050505091929192905050506107ee565b005b610427610873565b6040518080602001828103825283818151815260200191508051906020019080838360005b8381101561046757808201518184015260208101905061044c565b50505050905090810190601f1680156104945780820380516001836020036101000a031916815260200191505b509250505060405180910390f35b6104aa610911565b6040518080602001828103825283818151815260200191508051906020019080838360005b838110156104ea5780820151818401526020810190506104cf565b50505050905090810190601f1680156105175780820380516001836020036101000a031916815260200191505b509250505060405180910390f35b61052d6109af565b6040518080602001828103825283818151815260200191508051906020019080838360005b8381101561056d578082015181840152602081019050610552565b50505050905090810190601f16801561059a5780820380516001836020036101000a031916815260200191505b509250505060405180910390f35b610661600480360360208110156105be57600080fd5b81019080803590602001906401000000008111156105db57600080fd5b8201836020820111156105ed57600080fd5b8035906020019184600183028401116401000000008311171561060f57600080fd5b91908080601f016020809104026020016040519081016040528093929190818152602001838380828437600081840152601f19601f820116905080830192505050505050509192919290505050610a4d565b604051808215151515815260200191505060405180910390f35b60018054600181600116156101000203166002900480601f0160208091040260200160405190810160405280929190818152602001828054600181600116156101000203166002900480156107115780601f106106e657610100808354040283529160200191610711565b820191906000526020600020905b8154815290600101906020018083116106f457829003601f168201915b505050505081565b806000908051906020019061072f929190610acd565b5050565b6004818051602081018201805184825260208301602085012081835280955050505050506000915054906101000a900460ff1681565b60016004826040518082805190602001908083835b602083106107a1578051825260208201915060208101905060208303925061077e565b6001836020036101000a038019825116818451168082178552505050505050905001915050908152602001604051809103902060006101000a81548160ff02191690831515021790555050565b60016004826040518082805190602001908083835b602083106108265780518252602082019150602081019050602083039250610803565b6001836020036101000a038019825116818451168082178552505050505050905001915050908152602001604051809103902060006101000a81548160ff02191690831515021790555050565b60028054600181600116156101000203166002900480601f0160208091040260200160405190810160405280929190818152602001828054600181600116156101000203166002900480156109095780601f106108de57610100808354040283529160200191610909565b820191906000526020600020905b8154815290600101906020018083116108ec57829003601f168201915b505050505081565b60038054600181600116156101000203166002900480601f0160208091040260200160405190810160405280929190818152602001828054600181600116156101000203166002900480156109a75780601f1061097c576101008083540402835291602001916109a7565b820191906000526020600020905b81548152906001019060200180831161098a57829003601f168201915b505050505081565b60008054600181600116156101000203166002900480601f016020809104026020016040519081016040528092919081815260200182805460018160011615610100020316600290048015610a455780601f10610a1a57610100808354040283529160200191610a45565b820191906000526020600020905b815481529060010190602001808311610a2857829003601f168201915b505050505081565b60006004826040518082805190602001908083835b60208310610a855780518252602082019150602081019050602083039250610a62565b6001836020036101000a038019825116818451168082178552505050505050905001915050908152602001604051809103902060009054906101000a900460ff169050919050565b828054600181600116156101000203166002900490600052602060002090601f016020900481019282601f10610b0e57805160ff1916838001178555610b3c565b82800160010185558215610b3c579182015b82811115610b3b578251825591602001919060010190610b20565b5b509050610b499190610b4d565b5090565b610b6f91905b80821115610b6b576000816000905550600101610b53565b5090565b9056fea165627a7a723058209b844027ec995898f630abc716a6d1fe59a0bc3632d1106e4c38b78bb132c1eb0029596f752068617665206e6f7420656e74657265642074686973206275696c64696e67596f75206861766520656e746572656420616e6f74686572206275696c64696e67a165627a7a72305820c0efcc746012eec64b7891bebf17408b1d6b2a1338627ac5bb81b044854f42f90029",
  "source": "pragma solidity >=0.4.22 <0.7.0;\r\n\r\ncontract DIDDocumentFactory {\r\n    mapping(string => address) public DIDDocumentArray;\r\n\r\n    function createDIDDocument(address id) public returns (string memory){\r\n        DIDDocument d = new DIDDocument(id);\r\n        DIDDocumentArray[d.id()] = address(d);\r\n        return d.id();\r\n    }\r\n\r\n}\r\n\r\ncontract DIDDocument {\r\n    string public id; // user did\r\n    struct publicKeyElement {\r\n        string id;\r\n        string Type;\r\n        string owner;\r\n        address ethereumAddress;\r\n    }\r\n\r\n    struct authenticationElement{\r\n        string Type;\r\n        string publicKey;\r\n    }\r\n\r\n    publicKeyElement[] public publicKey;\r\n    authenticationElement[] public authentication;\r\n    constructor(address newId) public{\r\n        id = string(abi.encodePacked(\"did:ether:\",toAsciiString(newId)));\r\n        publicKeyElement memory p = publicKeyElement({\r\n            id: string(abi.encodePacked(id,\"#keys-1\")),\r\n            Type: \"Secp256k1VerificationKey2018\",\r\n            owner: id,\r\n            ethereumAddress: newId\r\n        });\r\n\r\n        authenticationElement memory a = authenticationElement({\r\n            Type: \"Secp256k1SignatureAuthentication2018\",\r\n            publicKey: string(abi.encodePacked(id,\"#owner\"))\r\n        });\r\n\r\n        publicKey.push(p);\r\n        authentication.push(a);\r\n    }\r\n    \r\n    function toAsciiString(address x) internal pure returns (string memory) {\r\n        bytes memory s = new bytes(40);\r\n        for (uint i = 0; i < 20; i++) {\r\n            byte b = byte(uint8(uint(x) / (2**(8*(19 - i)))));\r\n            byte hi = byte(uint8(b) / 16);\r\n            byte lo = byte(uint8(b) - 16 * uint8(hi));\r\n            s[2*i] = char(hi);\r\n            s[2*i+1] = char(lo);\r\n        }\r\n        return string(s);\r\n    }\r\n\r\n    function char(byte b) internal pure returns (byte ) {\r\n        if (uint8(b) < 10) return byte(uint8(b) + 0x30);\r\n        else return byte(uint8(b) + 0x57);\r\n    }\r\n   \r\n}\r\n\r\ncontract BuildingFactory{\r\n    string[] public array_building;\r\n    DIDDocumentFactory public didfactory;\r\n    mapping(address=>address) public inBuilding;\r\n\r\n    function createBuilding( string memory newName, string memory newLatitude, string memory newLongitude) public returns(string memory){\r\n        Building new_building = new Building(newName,newLatitude,newLongitude);\r\n        string memory id = didfactory.createDIDDocument(address(new_building));\r\n        new_building.set_building_DID(id);\r\n        array_building.push(id);\r\n        return id;\r\n    }\r\n    \r\n    function set_didfactory(address x) public{\r\n        didfactory = DIDDocumentFactory(x);\r\n    }\r\n\r\n    event enter (\r\n        address indexed workerAddress,\r\n        address indexed buildingAddress,\r\n        string longitude,\r\n        string latitude\r\n    );\r\n\r\n    event leave (\r\n        address indexed workerAddress,\r\n        address indexed buildingAddress,\r\n        string longitude,\r\n        string lattitude\r\n    );\r\n\r\n    function _enter(address workerAddress, address buildingAddress) public{\r\n        require(inBuilding[workerAddress]==address(0),\r\n        \"You have entered another building\");\r\n        Building b = Building(buildingAddress);\r\n        emit enter(workerAddress,buildingAddress,b.longitude(),b.latitude());\r\n        inBuilding[workerAddress] = buildingAddress;\r\n    }\r\n\r\n    function _leave(address workerAddress, address buildingAddress) public {\r\n        // require(building(buildingAddress).)\r\n        require(inBuilding[workerAddress]==buildingAddress,\r\n        \"You have not entered this building\");\r\n        Building b = Building(buildingAddress);\r\n        emit leave(workerAddress,buildingAddress,b.longitude(),b.latitude());\r\n        inBuilding[workerAddress] = address(0);\r\n    }\r\n    \r\n    function getBuildingAt(uint x) public view returns (string memory){\r\n        return array_building[x];\r\n    }\r\n}\r\n\r\ncontract Building {\r\n    \r\n    string public building_DID;\r\n    string public name;\r\n    string public latitude;\r\n    string public longitude;\r\n    mapping(string=>bool) public companyOwner;\r\n    // mapping(address=>uint) public inBuilding;\r\n    // mapping(string=>bool) in; \r\n    constructor( string memory newName, string memory newLatitude, string memory newLongitude) public{\r\n        name = newName;\r\n        latitude = newLatitude;\r\n        longitude = newLongitude;\r\n    }\r\n    \r\n    function set_building_DID(string memory x) public {\r\n        building_DID = x;\r\n    }\r\n\r\n    function add_company(string memory x) public {\r\n        companyOwner[x] = true;\r\n    }\r\n\r\n    function check_companyOwner(string memory x) public view returns (bool) {\r\n        return companyOwner[x];\r\n    } \r\n    \r\n    function set_companyOwner(string memory x) public {\r\n        companyOwner[x] = true;\r\n    }\r\n    // function check_in_building(address x) public view returns(uint){\r\n    //     return inBuilding[x];\r\n    // }\r\n\r\n    // function set_in_building(address x, uint status) public {\r\n    //     inBuilding[x] = status;\r\n    // }\r\n    // function checkIn()\r\n    // mapping(string=> boolean);\r\n}\r\n\r\n\r\n\r\n\r\n",
  "sourcePath": "F:/NTU/ECA/Blockchain @ NTU/Tribe/trial/contracts/contract.sol",
  "compiler": {
    "name": "solc",
    "version": "0.5.8+commit.23d335f2.Emscripten.clang"
  },
  "schemaVersion": "3.0.17",
  "updatedAt": "2020-05-21T11:10:38.177Z",
  "networkType": "ethereum",
  "devdoc": {
    "methods": {}
  },
  "userdoc": {
    "methods": {}
  }
}