{
  "contractName": "DIDDocument",
  "abi": [
    {
      "inputs": [
        {
          "internalType": "address",
          "name": "newId",
          "type": "address"
        }
      ],
      "payable": false,
      "stateMutability": "nonpayable",
      "type": "constructor"
    },
    {
      "constant": true,
      "inputs": [
        {
          "internalType": "uint256",
          "name": "",
          "type": "uint256"
        }
      ],
      "name": "authentication",
      "outputs": [
        {
          "internalType": "string",
          "name": "Type",
          "type": "string"
        },
        {
          "internalType": "string",
          "name": "publicKey",
          "type": "string"
        }
      ],
      "payable": false,
      "stateMutability": "view",
      "type": "function"
    },
    {
      "constant": true,
      "inputs": [],
      "name": "id",
      "outputs": [
        {
          "internalType": "string",
          "name": "",
          "type": "string"
        }
      ],
      "payable": false,
      "stateMutability": "view",
      "type": "function"
    },
    {
      "constant": true,
      "inputs": [
        {
          "internalType": "uint256",
          "name": "",
          "type": "uint256"
        }
      ],
      "name": "publicKey",
      "outputs": [
        {
          "internalType": "string",
          "name": "id",
          "type": "string"
        },
        {
          "internalType": "string",
          "name": "Type",
          "type": "string"
        },
        {
          "internalType": "string",
          "name": "owner",
          "type": "string"
        },
        {
          "internalType": "address",
          "name": "ethereumAddress",
          "type": "address"
        }
      ],
      "payable": false,
      "stateMutability": "view",
      "type": "function"
    }
  ],
  "bytecode": "0x60806040523480156200001157600080fd5b506040516200102538038062001025833981810160405260208110156200003757600080fd5b81019080805190602001909291905050506200005981620004e060201b60201c565b60405160200180807f6469643a65746865723a00000000000000000000000000000000000000000000815250600a0182805190602001908083835b60208310620000b9578051825260208201915060208101905060208303925062000094565b6001836020036101000a03801982511681845116808217855250505050505090500191505060405160208183030381529060405260009080519060200190620001049291906200067c565b506200010f62000703565b6040518060800160405280600060405160200180828054600181600116156101000203166002900480156200017e5780601f106200015b5761010080835404028352918201916200017e565b820191906000526020600020905b81548152906001019060200180831162000169575b5050807f236b6579732d310000000000000000000000000000000000000000000000000081525060070191505060405160208183030381529060405281526020016040518060400160405280601c81526020017f536563703235366b31566572696669636174696f6e4b65793230313800000000815250815260200160008054600181600116156101000203166002900480601f016020809104026020016040519081016040528092919081815260200182805460018160011615610100020316600290048015620002945780601f10620002685761010080835404028352916020019162000294565b820191906000526020600020905b8154815290600101906020018083116200027657829003601f168201915b505050505081526020018373ffffffffffffffffffffffffffffffffffffffff168152509050620002c462000741565b60405180604001604052806040518060600160405280602481526020016200100160249139815260200160006040516020018082805460018160011615610100020316600290048015620003525780601f106200032f57610100808354040283529182019162000352565b820191906000526020600020905b8154815290600101906020018083116200033d575b5050807f236f776e657200000000000000000000000000000000000000000000000000008152506006019150506040516020818303038152906040528152509050600182908060018154018082558091505090600182039060005260206000209060040201600090919290919091506000820151816000019080519060200190620003df9291906200075b565b506020820151816001019080519060200190620003fe9291906200075b565b5060408201518160020190805190602001906200041d9291906200075b565b5060608201518160030160006101000a81548173ffffffffffffffffffffffffffffffffffffffff021916908373ffffffffffffffffffffffffffffffffffffffff160217905550505050600281908060018154018082558091505090600182039060005260206000209060020201600090919290919091506000820151816000019080519060200190620004b49291906200075b565b506020820151816001019080519060200190620004d39291906200075b565b505050505050506200080a565b60608060286040519080825280601f01601f191660200182016040528015620005185781602001600182028038833980820191505090505b50905060008090505b60148110156200063c5760008160130360080260020a8573ffffffffffffffffffffffffffffffffffffffff16816200055657fe5b0460f81b9050600060108260f81c60ff16816200056f57fe5b0460f81b905060008160f81c6010028360f81c0360f81b905062000599826200064660201b60201c565b858560020281518110620005a957fe5b60200101907effffffffffffffffffffffffffffffffffffffffffffffffffffffffffffff1916908160001a905350620005e9816200064660201b60201c565b856001866002020181518110620005fc57fe5b60200101907effffffffffffffffffffffffffffffffffffffffffffffffffffffffffffff1916908160001a905350505050808060010191505062000521565b5080915050919050565b6000600a8260f81c60ff1610156200066a5760308260f81c0160f81b905062000677565b60578260f81c0160f81b90505b919050565b828054600181600116156101000203166002900490600052602060002090601f016020900481019282601f10620006bf57805160ff1916838001178555620006f0565b82800160010185558215620006f0579182015b82811115620006ef578251825591602001919060010190620006d2565b5b509050620006ff9190620007e2565b5090565b6040518060800160405280606081526020016060815260200160608152602001600073ffffffffffffffffffffffffffffffffffffffff1681525090565b604051806040016040528060608152602001606081525090565b828054600181600116156101000203166002900490600052602060002090601f016020900481019282601f106200079e57805160ff1916838001178555620007cf565b82800160010185558215620007cf579182015b82811115620007ce578251825591602001919060010190620007b1565b5b509050620007de9190620007e2565b5090565b6200080791905b8082111562000803576000816000905550600101620007e9565b5090565b90565b6107e7806200081a6000396000f3fe608060405234801561001057600080fd5b50600436106100415760003560e01c806361721ce6146100465780638940aebe14610159578063af640d0f1461030b575b600080fd5b6100726004803603602081101561005c57600080fd5b810190808035906020019092919050505061038e565b604051808060200180602001838103835285818151815260200191508051906020019080838360005b838110156100b657808201518184015260208101905061009b565b50505050905090810190601f1680156100e35780820380516001836020036101000a031916815260200191505b50838103825284818151815260200191508051906020019080838360005b8381101561011c578082015181840152602081019050610101565b50505050905090810190601f1680156101495780820380516001836020036101000a031916815260200191505b5094505050505060405180910390f35b6101856004803603602081101561016f57600080fd5b81019080803590602001909291905050506104ef565b604051808060200180602001806020018573ffffffffffffffffffffffffffffffffffffffff1673ffffffffffffffffffffffffffffffffffffffff168152602001848103845288818151815260200191508051906020019080838360005b838110156101ff5780820151818401526020810190506101e4565b50505050905090810190601f16801561022c5780820380516001836020036101000a031916815260200191505b50848103835287818151815260200191508051906020019080838360005b8381101561026557808201518184015260208101905061024a565b50505050905090810190601f1680156102925780820380516001836020036101000a031916815260200191505b50848103825286818151815260200191508051906020019080838360005b838110156102cb5780820151818401526020810190506102b0565b50505050905090810190601f1680156102f85780820380516001836020036101000a031916815260200191505b5097505050505050505060405180910390f35b610313610714565b6040518080602001828103825283818151815260200191508051906020019080838360005b83811015610353578082015181840152602081019050610338565b50505050905090810190601f1680156103805780820380516001836020036101000a031916815260200191505b509250505060405180910390f35b6002818154811061039b57fe5b9060005260206000209060020201600091509050806000018054600181600116156101000203166002900480601f0160208091040260200160405190810160405280929190818152602001828054600181600116156101000203166002900480156104475780601f1061041c57610100808354040283529160200191610447565b820191906000526020600020905b81548152906001019060200180831161042a57829003601f168201915b505050505090806001018054600181600116156101000203166002900480601f0160208091040260200160405190810160405280929190818152602001828054600181600116156101000203166002900480156104e55780601f106104ba576101008083540402835291602001916104e5565b820191906000526020600020905b8154815290600101906020018083116104c857829003601f168201915b5050505050905082565b600181815481106104fc57fe5b9060005260206000209060040201600091509050806000018054600181600116156101000203166002900480601f0160208091040260200160405190810160405280929190818152602001828054600181600116156101000203166002900480156105a85780601f1061057d576101008083540402835291602001916105a8565b820191906000526020600020905b81548152906001019060200180831161058b57829003601f168201915b505050505090806001018054600181600116156101000203166002900480601f0160208091040260200160405190810160405280929190818152602001828054600181600116156101000203166002900480156106465780601f1061061b57610100808354040283529160200191610646565b820191906000526020600020905b81548152906001019060200180831161062957829003601f168201915b505050505090806002018054600181600116156101000203166002900480601f0160208091040260200160405190810160405280929190818152602001828054600181600116156101000203166002900480156106e45780601f106106b9576101008083540402835291602001916106e4565b820191906000526020600020905b8154815290600101906020018083116106c757829003601f168201915b5050505050908060030160009054906101000a900473ffffffffffffffffffffffffffffffffffffffff16905084565b60008054600181600116156101000203166002900480601f0160208091040260200160405190810160405280929190818152602001828054600181600116156101000203166002900480156107aa5780601f1061077f576101008083540402835291602001916107aa565b820191906000526020600020905b81548152906001019060200180831161078d57829003601f168201915b50505050508156fea265627a7a72315820998644fda1be2be152832a9afdc31fb3421ddde9ff18dfc45e2fdbca0c1d31b864736f6c63430005100032536563703235366b315369676e617475726541757468656e7469636174696f6e32303138",
  "source": "pragma solidity >=0.4.22 <0.7.0;\r\n\r\ncontract DIDDocumentFactory {\r\n    mapping(string => address) public DIDDocumentArray;\r\n\r\n    function createDIDDocument(address id) public returns (string memory){\r\n        DIDDocument d = new DIDDocument(id);\r\n        DIDDocumentArray[d.id()] = address(d);\r\n        return d.id();\r\n    }\r\n\r\n}\r\n\r\ncontract DIDDocument {\r\n    string public id; // user did\r\n    struct publicKeyElement {\r\n        string id;\r\n        string Type;\r\n        string owner;\r\n        address ethereumAddress;\r\n    }\r\n\r\n    struct authenticationElement{\r\n        string Type;\r\n        string publicKey;\r\n    }\r\n\r\n    publicKeyElement[] public publicKey;\r\n    authenticationElement[] public authentication;\r\n    constructor(address newId) public{\r\n        id = string(abi.encodePacked(\"did:ether:\",toAsciiString(newId)));\r\n        publicKeyElement memory p = publicKeyElement({\r\n            id: string(abi.encodePacked(id,\"#keys-1\")),\r\n            Type: \"Secp256k1VerificationKey2018\",\r\n            owner: id,\r\n            ethereumAddress: newId\r\n        });\r\n\r\n        authenticationElement memory a = authenticationElement({\r\n            Type: \"Secp256k1SignatureAuthentication2018\",\r\n            publicKey: string(abi.encodePacked(id,\"#owner\"))\r\n        });\r\n\r\n        publicKey.push(p);\r\n        authentication.push(a);\r\n    }\r\n    \r\n    function toAsciiString(address x) internal pure returns (string memory) {\r\n        bytes memory s = new bytes(40);\r\n        for (uint i = 0; i < 20; i++) {\r\n            byte b = byte(uint8(uint(x) / (2**(8*(19 - i)))));\r\n            byte hi = byte(uint8(b) / 16);\r\n            byte lo = byte(uint8(b) - 16 * uint8(hi));\r\n            s[2*i] = char(hi);\r\n            s[2*i+1] = char(lo);\r\n        }\r\n        return string(s);\r\n    }\r\n\r\n    function char(byte b) internal pure returns (byte ) {\r\n        if (uint8(b) < 10) return byte(uint8(b) + 0x30);\r\n        else return byte(uint8(b) + 0x57);\r\n    }\r\n   \r\n}\r\n\r\ncontract BuildingFactory{\r\n    string[] public array_building;\r\n    DIDDocumentFactory public didfactory;\r\n    mapping(address=>address) public inBuilding;\r\n\r\n    function createBuilding( string memory newName, string memory newLatitude, string memory newLongitude) public returns(string memory){\r\n        Building new_building = new Building(newName,newLatitude,newLongitude);\r\n        string memory id = didfactory.createDIDDocument(address(new_building));\r\n        new_building.set_building_DID(id);\r\n        array_building.push(id);\r\n        return id;\r\n    }\r\n    \r\n    function set_didfactory(address x) public{\r\n        didfactory = DIDDocumentFactory(x);\r\n    }\r\n\r\n    event enter (\r\n        address indexed workerAddress,\r\n        address indexed buildingAddress,\r\n        string longitude,\r\n        string latitude\r\n    );\r\n\r\n    event leave (\r\n        address indexed workerAddress,\r\n        address indexed buildingAddress,\r\n        string longitude,\r\n        string lattitude\r\n    );\r\n\r\n    function _enter(address workerAddress, address buildingAddress) public{\r\n        require(inBuilding[workerAddress]==address(0),\r\n        \"You have entered another building\");\r\n        Building b = Building(buildingAddress);\r\n        emit enter(workerAddress,buildingAddress,b.longitude(),b.latitude());\r\n        inBuilding[workerAddress] = buildingAddress;\r\n    }\r\n\r\n    function _leave(address workerAddress, address buildingAddress) public {\r\n        // require(building(buildingAddress).)\r\n        require(inBuilding[workerAddress]==buildingAddress,\r\n        \"You have not entered this building\");\r\n        Building b = Building(buildingAddress);\r\n        emit leave(workerAddress,buildingAddress,b.longitude(),b.latitude());\r\n        inBuilding[workerAddress] = address(0);\r\n    }\r\n    \r\n    function getBuildingAt(uint x) public view returns (string memory){\r\n        return array_building[x];\r\n    }\r\n}\r\n\r\ncontract Building {\r\n    \r\n    string public building_DID;\r\n    string public name;\r\n    string public latitude;\r\n    string public longitude;\r\n    mapping(string=>bool) public companyOwner;\r\n    // mapping(address=>uint) public inBuilding;\r\n    // mapping(string=>bool) in; \r\n    constructor( string memory newName, string memory newLatitude, string memory newLongitude) public{\r\n        name = newName;\r\n        latitude = newLatitude;\r\n        longitude = newLongitude;\r\n    }\r\n    \r\n    function set_building_DID(string memory x) public {\r\n        building_DID = x;\r\n    }\r\n\r\n    function add_company(string memory x) public {\r\n        companyOwner[x] = true;\r\n    }\r\n\r\n    function check_companyOwner(string memory x) public view returns (bool) {\r\n        return companyOwner[x];\r\n    } \r\n    \r\n    function set_companyOwner(string memory x) public {\r\n        companyOwner[x] = true;\r\n    }\r\n    // function check_in_building(address x) public view returns(uint){\r\n    //     return inBuilding[x];\r\n    // }\r\n\r\n    // function set_in_building(address x, uint status) public {\r\n    //     inBuilding[x] = status;\r\n    // }\r\n    // function checkIn()\r\n    // mapping(string=> boolean);\r\n}\r\n\r\n\r\n\r\n\r\n",
  "sourcePath": "/Users/cuong.truongcong/Desktop/ContactTracing/contracts/contract.sol",
  "compiler": {
    "name": "solc",
    "version": "0.5.16+commit.9c3226ce.Emscripten.clang"
  },
  "schemaVersion": "3.2.2",
  "updatedAt": "2020-07-19T07:14:18.564Z",
  "devdoc": {
    "methods": {}
  },
  "userdoc": {
    "methods": {}
  }
}